:020000040000FA
:060000000A128A11EE2F26
:100DA20047346F346F34643420346D346F347234AA
:100DB2006E3469346E346734213400347E088A001C
:100DC2007F0882000A128A11DF260A128A11800025
:100DD200840A04087D0603190034FF0A0319FE0A77
:100DE200E32EF301F401FB2E0130F3070318F40A9A
:100DF2000030F4077408803AF2007108803A7202F7
:100E0200031D052F70087302031C082F092FF52EEE
:100E12000800F60076088312031385000814FD30DB
:100E2200F5007508880508156430F0000030F100FF
:100E32000A128A11F2260A128A11FB30F50075088D
:100E42008312031388051030F0002730F1000A12D4
:100E52008A11F2260A128A110800F6007608831215
:100E620003138500FE30F50075088805FD30F50096
:100E72007508880508156430F0000030F1000A1288
:100E82008A11F2260A128A11FB30F50075088312C4
:100E9200031388051030F0002730F1000A128A117E
:100EA200F2260A128A110800203084002F30F7003F
:100EB2000408F8000E30F900770884008313000854
:100EC200FA00F70A780884007A088000F80AF90B19
:100ED2005D2F831603138501880138300A128A11A7
:100EE2002E270A128A110E300A128A112E270A128E
:100EF2008A1101300A128A112E270A128A118030B1
:100F02000A128A112E270A128A1148300A128A11ED
:100F12000A270A128A1165300A128A110A270A124E
:100F22008A116C300A128A110A270A128A116C304D
:100F32000A128A110A270A128A116F300A128A11BA
:100F42000A270A128A1120300A128A110A270A1263
:100F52008A1177300A128A110A270A128A116F300F
:100F62000A128A110A270A128A1172300A128A1187
:100F72000A270A128A116C300A128A110A270A12E7
:100F82008A1164300A128A110A270A128A11C030A1
:100F92000A128A112E270A128A1183120313AE0132
:100FA200E12F2E08203E840000080A128A110A2727
:100FB2000A128A110130F700770883120313AE0771
:100FC2002E08203E840083130008031DE92FEA2F18
:100FD200D22FEA2F0A128A11002883133D30FD0016
:100FE2000630FE00D130FF002F3084000A128A1131
:0E0FF200E3260A128A1183010A128A11552F72
:04400E00D4E0FFFFFC
:00000001FF
