:020000040000FA
:100000000A128A11F32F64008001840A040603197E
:100010000034040604288312031385018601870136
:100020008901831603138501013086008701880149
:10003000831603178801013089000800FB00F901CD
:10004000FA01352879087B0784000A128A150020F6
:100050000A128A110A128A15DE270A128A11013041
:10006000F9070318FA0A0030FA0779087B078400B9
:100070000A128A1500200A128A11003A031D41282B
:10008000422822280800FB007B03031D482849283A
:10009000562879087F3EFA007A0883120313D000AD
:1000A00050080A128A15BE270A128A1102307B06EE
:1000B000031D5B285C2869287908BF3EFA007A088E
:1000C00083120313D00050080A128A15BE270A12A1
:1000D0008A110800F800F401F5017008F200F3013C
:1000E0007208F6007308F700781C772878287E28B5
:1000F0007608F4070318F50A7708F50701300310AE
:10010000F60DF70DFF3E031D7F280310F80C78084D
:10011000031D8B288C2874287508F1007408F000E2
:1001200008001430F0000030F1000A128A159327FD
:100130000A128A1130300A128A15BE270A128A1151
:100140000530F0000030F1000A128A1593270A12D8
:100150008A1130300A128A15BE270A128A110A3013
:10016000F0000030F1000A128A1593270A128A1152
:1001700038300A128A15BE270A128A1110300A1264
:100180008A15BE270A128A1101300A128A15BE2763
:100190000A128A1106300A128A15BE270A128A111B
:1001A0000C300A128A15BE270A128A1180300A12F0
:1001B0008A15BE270A128A110800F8007808031968
:1001C000E228E328F728F31FE628E728F728700934
:1001D000FA007109FB007209FC007309FD00FA0ABC
:1001E0000319FB0A0319FC0A0319FD0AFF28730807
:1001F000FD007208FC007108FB007008FA0073082B
:10020000720471047004031D0629072910290030A7
:10021000F3000030F2000030F1000030F0009629C9
:100220009630F4007408F90022290130F4007408B3
:10023000F90701300310FD0CFC0CFB0CFA0CFF3E1F
:10024000031D1A29FE307D05031D2729282915299C
:1002500044290130F4007408F9070130FA0700302E
:1002600003180130FB07003003180130FC07003091
:1002700003180130FD0701300310FD0CFC0CFB0CD2
:10028000FA0CFF3E031D3C29FF307D05031D492963
:100290004A29292956290130F9020130F4000310B6
:1002A000FA0DFB0DFC0DFD0DF40B4F29FC1B59291C
:1002B0005A2960290230790203185F2960294B29E5
:1002C0007918632964296C29FF30FA05FF30FB0592
:1002D0007F30FC05FF30FD050310F90C7908F400B0
:1002E000F501F601F70118300310F40DF50DF60DC8
:1002F000F70DFF3E031D74297408FA047508FB040A
:100300007608FC047708FD047808031988298929F0
:100310008E29F31F8C298D298E29FD177D08F30066
:100320007C08F2007B08F1007A08F00008000A124D
:100330008A110B200A128A110A128A1191200A12BC
:100340008A110A128A15AC270A128A110A128A1512
:100350009F270A128A11F901F90A01300A128A113B
:1003600043200A128A1101300A128A111E200A1231
:100370008A110A128A158B270A128A118312031313
:100380009F140C131E08BA00BB013A08CE003B08AC
:10039000CF004F08BB004E08BA003A08BB00BA01B4
:1003A0003A08CE003B08CF00831603131E088312C1
:1003B00003134E07BA004F0803184F0ABB003A0850
:1003C000CE003B08CF004030A300A030A200003098
:1003D000A1000030A0004E08F0004F08F1000030EE
:1003E000F11BFF30F200F30001300A128A11DD2008
:1003F0000A128A11730883120313A7007208A60059
:100400007108A5007008A4000A128A1192240A1229
:100410008A11831203132308C3002208C200210893
:10042000C1002008C0004430F3008030F2000030EA
:10043000F1000030F0004308F7004208F6004108E0
:10044000F5004008F4000A128A11AF220A128A113C
:10045000730883120313C3007208C2007108C1003D
:100460007008C0000A128A1584270A128A118312A2
:1004700003139F140C131E08BA00BB013A08CC00EA
:100480003B08CD004D08BB004C08BA003A08BB0041
:10049000BA013A08CC003B08CD00831603131E08AE
:1004A000831203134C07BA004D0803184D0ABB0012
:1004B0003A08CC003B08CD004030A300A030A20099
:1004C0000030A1000030A0004C08F0004D08F10001
:1004D0000030F11BFF30F200F30001300A128A11E4
:1004E000DD200A128A11730883120313A700720811
:1004F000A6007108A5007008A4000A128A119224AF
:100500000A128A11831203132308BF002208BE00B7
:100510002108BD002008BC004430F3008030F20008
:100520000030F1000030F0003F08F7003E08F60010
:100530003D08F5003C08F4000A128A11AF220A12A5
:100540008A11730883120313BF007208BE0071087A
:10055000BD007008BC00B9290A128A11002877086A
:100560008039F800780883120313A4007708F80094
:100570007807F9007908AB00F61FBF2AC02AC12A04
:100580002B142B080319C52AC62AD62A2B0A031DA9
:10059000CA2ACB2AD32A0030F7000030F6000030F8
:1005A000F5000030F400F617F701DE2A0030F700FE
:1005B0000030F6000030F5000030F4007308803998
:1005C000F8007808A4067308F8007807F90079089D
:1005D000AC00F21FEC2AED2AEE2A2C142C08031989
:1005E000F22AF32A032B2C0A031DF72AF82A002BE0
:1005F0000030F3000030F2000030F1000030F00075
:10060000F217F3010B2B0030F3000030F200003042
:10061000F1000030F0007308720471047004031DCF
:10062000122B132B2C2B0030F7000030F60000307B
:10063000F5000030F4008030F6047F30F704240821
:10064000F8007808F7047708F3007608F2007508D8
:10065000F1007408F000912C2B08031D302B312B76
:100660003A2B0030F3000030F2000030F10000308F
:10067000F000912C2B08F800F9017908FB002C08F8
:100680007802FA00031CFB037A087F3EA5007B0872
:100690000318013E003EA6007708A3007608A200DA
:1006A0007508A1007408A0000030F7000030F600C3
:1006B0000030F5000030F4000030AA000030A9003E
:1006C0000030A8000030A700AC01B62B2C0803199D
:1006D0006A2B6B2B8B2B0130F8000310A00DA10DA2
:1006E000A20DA30DF80B6D2B0130F8000310F40DD3
:1006F000F50DF60DF70DF80B762BAA1F802B812B2D
:10070000822B74140130F8000310A70DA80DA90D59
:10071000AA0DF80B842B73082302031D992B720872
:100720002202031D992B71082102031D992B7008C9
:100730002002031C9C2B9D2BB22B2A177008A002B1
:100740007108031C710FA52BA62BA1027208031CB4
:10075000720FAB2BAC2BA2027308031C730FB12BCF
:10076000B22BA3020130F8007808AC071A302C0233
:10077000031CBB2BBC2B662B230822042104200462
:100780000319C32BC42BE32B2714E32B0130F800F0
:100790000310F40DF50DF60DF70DF80BC82BAA1F7D
:1007A000D22BD32BD42B74140130F8000310A70DD7
:1007B000A80DA90DAA0DF80BD62BFF30A50703181D
:1007C000A60AFF30A607F61FE62BE72BC62BAC01C7
:1007D000AA1FEB2BEC2B082CFF302705F800FF306D
:1007E0002805F900FF302905FA007F302A05FB00B3
:1007F0007B087A04790478040319FF2B002C032C5E
:10080000AC01AC0A082C741C062C072C082C002CFC
:100810002C0803190C2C0D2C3E2C0130F407003051
:1008200003180130F507003003180130F6070030D7
:1008300003180130F707771C1E2C1F2C3E2C740860
:10084000F8007508F9007608FA007708FB00013017
:10085000FC007B0DFB0CFA0CF90CF80CFC0B292CA2
:100860007B08F7007A08F6007908F5007808F400AC
:100870000130A5070318A60A0030A6072608803A0B
:10088000FF0080307F02031D472CFF302502031C30
:100890004A2C4B2C592CFF3083120313A500003037
:1008A000A6000030F7000030F6000030F500003000
:1008B000F400831203132608803AFF0080307F0281
:1008C000031D642C013025020318672C682C752C3D
:1008D00083120313A501A6010030F7000030F600D3
:1008E0000030F5000030F400A40183120313250842
:1008F000F8007808AB002B1C7E2C7F2C812CF6177F
:10090000852C7F30F8007808F6052B08F8000310D6
:10091000780CF9007908F7002408F8007808F70443
:10092000232B08008312031323088039A80028080A
:10093000AD002308A8002807A9002908B300A21FBA
:10094000A22CA32CA42C331433080319A82CA92CF3
:10095000B82C330A031DAD2CAE2CB62C0030A300EE
:100960000030A2000030A1000030A000A217C02C6F
:100970000030A3000030A2000030A1000030A00031
:1009800027088039A8002808AD062708A8002807EE
:10099000A9002908B200A61FCE2CCF2CD02C3214CF
:1009A00032080319D42CD52CE42C320A031DD92C7F
:1009B000DA2CE22C0030A7000030A6000030A500A1
:1009C0000030A400A617EC2C0030A7000030A600D1
:1009D0000030A5000030A40032080319F02CF12CDF
:1009E000F62C3308031DF52CF62CFF2C0030A30049
:1009F0000030A2000030A1000030A000F22F20083B
:100A0000A8002808F00026080A128A116A200A1293
:100A10008A11710883120313B9007008B8003808EE
:100A2000A800A901AA01AB012B08B1002A08B00057
:100A30002908AF002808AE003908A800A901AA01BA
:100A4000AB012B08B7002A08B6002908B500280812
:100A5000B4002108A8002808F00025080A128A110D
:100A60006A200A128A11710883120313B9007008F0
:100A7000B8003808A800A901AA01AB012808AE07F0
:100A8000290803110318013E0319472DAF072A084F
:100A900003110318013E03194E2DB0072B08031153
:100AA0000318013E0319552DB1073908A800A90103
:100AB000AA01AB012808B407290803110318013E55
:100AC0000319632DB5072A0803110318013E031902
:100AD0006A2DB6072B0803110318013E0319712D67
:100AE000B7072208A8002808F00024080A128A1173
:100AF0006A200A128A11710883120313B900700860
:100B0000B8003808A800A901AA01AB012808AE075F
:100B1000290803110318013E03198F2DAF072A0876
:100B200003110318013E0319962DB0072B0803117A
:100B30000318013E03199D2DB1073908A800A9012A
:100B4000AA01AB012808B407290803110318013EC4
:100B50000319AB2DB5072A0803110318013E031929
:100B6000B22DB6072B0803110318013E0319B92D46
:100B7000B7070830A8000310AE0DAF0DB00DB10DD2
:100B8000A80BBB2D2108A8002808F00024080A1291
:100B90008A116A200A128A11710883120313B9009C
:100BA0007008B8003808A8003908A900AA01AB01EC
:100BB0002808AE07290803110318013E0319E12D87
:100BC000AF072A0803110318013E0319E82DB007E7
:100BD0002B0803110318013E0319EF2DB10720085C
:100BE000A8002808F00025080A128A116A200A12B3
:100BF0008A11710883120313B9007008B80038080D
:100C0000A8003908A900AA01AB012808AE072908E5
:100C100003110318013E03190E2EAF072A08031112
:100C20000318013E0319152EB0072B0803110318F2
:100C3000013E03191C2EB1070830A8000310AE0DA9
:100C4000AF0DB00DB10DA80B1E2E2008A80028086E
:100C5000F00024080A128A116A200A128A11710807
:100C600083120313B9007008B8003808A8003908C7
:100C7000A900AA01AB012808AE072908031103182F
:100C8000013E0319442EAF072A0803110318013E41
:100C900003194B2EB0072B0803110318013E03194B
:100CA000522EB1072108A8002808F00026080A12D1
:100CB0008A116A200A128A11710883120313B9007B
:100CC0007008B8003808A8003908A900AA01AB01CB
:100CD0002808B407290803110318013E0319712ECF
:100CE000B5072A0803110318013E0319782EB60729
:100CF0002B0803110318013E03197F2EB7072208A2
:100D0000A8002808F00025080A128A116A200A1291
:100D10008A11710883120313B9007008B8003808EB
:100D2000A8003908A900AA01AB012808B4072908BE
:100D300003110318013E03199E2EB5072A0803115B
:100D40000318013E0319A52EB6072B08031103183B
:100D5000013E0319AC2EB7072208A8002808F000AE
:100D600026080A128A116A200A128A11710883124F
:100D70000313B9007008B8003808A8003908A900A2
:100D8000AA01AB0108300310A80DA90DAA0DAB0DE7
:100D9000FF3E031DC32E2808B407290803110318BA
:100DA000013E0319D42EB5072A0803110318013E8A
:100DB0000319DB2EB6072B0803110318013E031994
:100DC000E22EB7072E08A8002F08A9003008AA00B5
:100DD0003108AB0018300310AB0CAA0CA90CA80CFE
:100DE000FF3E031DEB2E2808B40729080311031842
:100DF000013E0319FC2EB5072A0803110318013E12
:100E00000319032FB6072B0803110318013E03191A
:100E10000A2FB7070830A8000310AE0DAF0DB00DB4
:100E2000B10DA80B0C2F33083207A800A901A90D9A
:100E30002808823EB80029080318013EFF3EB90089
:100E40003E2F0130A8000310B40DB50DB60DB70D3F
:100E5000A80B232FB11F2D2F2E2F2F2F341401302D
:100E6000A8000310AE0DAF0DB00DB10DA80B312FC2
:100E7000FF30B8070318B90AFF30B907B61F412F72
:100E8000422F212FB201B11F462F472F632FFF3072
:100E90002E05A800FF302F05A900FF303005AA005D
:100EA0007F303105AB002B082A04290428040319DC
:100EB0005A2F5B2F5E2FB201B20A632F341C612FB1
:100EC000622F632F5B2F32080319672F682F992F2A
:100ED0000130B407003003180130B50700300318A3
:100EE0000130B607003003180130B707371C792FDF
:100EF0007A2F992F3408A8003508A9003608AA00CF
:100F00003708AB000130AC002B0DAB0CAA0CA90CC0
:100F1000A80CAC0B842F2B08B7002A08B6002908B0
:100F2000B5002808B4000130B8070318B90A00302A
:100F3000B9073908803AFF0080307F02031DA22FD5
:100F4000FF303802031CA52FA62FB12F7F3083124C
:100F50000313B7008030B6000030B5000030B40095
:100F6000E62F831203133908803AFF0080307F0296
:100F7000031DBC2F013038020318BF2FC02FCC2F08
:100F8000003083120313B7000030B6000030B50004
:100F90000030B400AD01E62F831203133808A80017
:100FA0002808B300FF30B405FF30B5057F30B60523
:100FB0000030B705331CDD2FDE2FDF2FB6173308C7
:100FC000A8000310280CA9002908B7002D08A800C4
:100FD0002808B7043708A3003608A2003508A10086
:100FE0003408A000080083133C30840051300A12FA
:100FF0008A1103200A128A1183010A128A11972981
:1010000008308A000408840A8207003450346F34A0
:10101000743431342034203420342034203450349B
:101020004F34543432342034203420342034433488
:081030004F344E3454340034F7
:101F0800831203131F119F151F129F1608008312B7
:101F180003131F119F111F169F161F14080001306D
:101F2800F4000030F5000130F4070318F50A00301A
:101F3800F507972F080000300A128A15BE270A12E3
:101F48008A1501300A128A15BE270A128A15080056
:101F58008B170B160B178B160B11831603139F1772
:101F68001F129F12831203131F179F138316031345
:101F78000C170800F8007808F600F70176088312B5
:101F88000313C4007708C5000130CA000030CB0035
:101F9800C801C901C601C7010530F0000030F100D1
:101FA8000A128A1593270A128A1583120313CA0183
:101FB800CB010800F800013083120313C800003079
:101FC800C9007808F600F7017608C4007708C5004C
:101FD800C601C7010130CA000030CB001E30F00036
:101FE8000030F1000A128A1593270A128A15831203
:081FF8000313CA01CB0108002C
:04400E00D4E0FFFFFC
:00000001FF
