:020000040000FA
:100000000A128A11F32F7308720471047004031921
:100010000A280B280D288030F306080083120313EA
:10002000850186018701890183160313850101304B
:100030008600870188018316031788010130890033
:1000400008008312031355088039DA005A08E200C9
:100050005508DA005A07DB005B08E400D41F31289A
:1000600032283328641464080319372838284828AC
:10007000640A031D3C283D2845280030D500003087
:10008000D4000030D3000030D200D417D50150285E
:100090000030D5000030D4000030D3000030D20052
:1000A00059088039DA005A08E30063086206031928
:1000B0005A285B285C2862175908DA005A07DB00C7
:1000C0005B08E300D81F6528662867286314630867
:1000D00003196B286C287C28630A031D702871287B
:1000E00079280030D9000030D8000030D700003027
:1000F000D600D817D90184280030D9000030D800A4
:100100000030D7000030D600640863020318892845
:100110008A28CE28621F8D288E2892288030DA0007
:100120005A08E2066408DA005A08E5006308DA00B3
:100130005A08E4006508DA005A08E3005208DA00B9
:100140005A08E5005608DA005A08D2006508DA00B5
:100150005A08D6005308DA005A08E5005708DA00B2
:100160005A08D3006508DA005A08D7005408DA00A4
:100170005A08E5005808DA005A08D4006508DA0081
:100180005A08D8005508DA005A08E5005908DA007C
:100190005A08D5006508DA005A08D900E501630855
:1001A000DA00DB015B08DD0064085A02DC00031C96
:1001B000DD035D08803AFF0080307F02031DE228E6
:1001C0001A305C02031CE528E62823298312031356
:1001D0005508540453045204031DEF28F12801303C
:1001E000F2280030DA005A08E5000030D50000306F
:1001F000D4000030D3000030D2006308DA005A087F
:10020000E4002B29651C052906290F296508DA0059
:1002100003105A0C0138DB005B08E50011290310BC
:10022000E50C521C142915291629E5170130DA00AE
:10023000550DD50CD40CD30CD20CDA0B1829013087
:10024000DA005A08E4078312031363086402031CEC
:100250002A292B290229621B2E292F297A29640891
:10026000031D332934293D290030D5000030D40046
:100270000030D3000030D200A82A5608D207570811
:1002800003110318013E03194629D3075808031127
:100290000318013E03194D29D40759080311031807
:1002A000013E03195429D507551C572958292E2AD0
:1002B000651C5B295C2965296508DA0003105A0C66
:1002C0000138DB005B08E50067290310E50C521CD0
:1002D0006A296B296C29E5170130DA00550DD50C18
:1002E000D40CD30CD20CDA0B6E290130DA005A0888
:1002F000E4072E2A5508803AFF005908803A7F0209
:10030000031D8C2958085402031D8C2957085302D9
:10031000031D8C295608520203188F299029E829B9
:10032000FF30DA00FF30DB00FF30DC00FF30DD00A3
:100330005608DE005708DF005808E0005908E100C1
:100340005208DE025308031C530FA729A829DF0215
:100350005408031C540FAD29AE29E0025508031CB4
:10036000550FB329B429E1025E08DA075F080318C4
:100370005F0FBB29BC29DB0760080318600FC12988
:10038000C229DC0761080318610ADD075D08D50092
:100390005C08D4005B08D3005A08D2008030DA0031
:1003A0005A08E206E509E50A6508031DD829D92996
:1003B000F6290130D207003003180130D30700308E
:1003C00003180130D407003003180130D507F6298F
:1003D0005608D2025708031C570FD3025808031CB3
:1003E000580FD4025908031C590FD502550854045C
:1003F00053045204031DFD29FE292A2A6508031D02
:10040000022A032A2A2A0030D5000030D400003006
:10041000D3000030D200A82A0130DA000310D20D38
:10042000D30DD40DD50DDA0B0E2AE51F182A192A83
:100430001A2A5214651C1D2A1E2A212A0314E50DAE
:10044000232A0310E50D64080319272A282A2A2ADB
:100450000130E402D41F2D2A2E2A0C2AE301E51FC5
:10046000322A332A412A65087F390319382A392A62
:100470003C2AE301E30A412A521C3F2A402A412A2E
:10048000392A63080319452A462A7A2A0130D207F5
:10049000003003180130D307003003180130D407AF
:1004A000003003180130D507551C572A582A7A2ADC
:1004B0005208DA005308DB005408DC005508DD0060
:1004C0000130DE005D0DDD0CDC0CDB0CDA0CDE0B2C
:1004D000622A5D08D5005C08D4005B08D3005A0886
:1004E000D200640A0319752A762A7A2A0130DA00C2
:1004F0005A08E407640A03197E2A7F2A842A6408BA
:10050000031D832A842A922A0030D5000030D400AB
:100510000030D3000030D2006408031D902A912AD5
:10052000922AE201641C952A962A982AD4179C2ABA
:100530007F30DA005A08D4056408DA0003105A0C38
:10054000DB005B08D500E21FA62AA72AA82AD51738
:100550000800831603134408F3004308F20042081E
:10056000F1004108F0000030F7000030F6000030E4
:10057000F5000030F4000A168A15D0220A128A11FA
:100580000318C32AC42A6C2B83160313440883124E
:100590000313D40083160313430883120313D300F9
:1005A00083160313420883120313D2008316031326
:1005B000410883120313D1000A168A1103200A127C
:1005C0008A11831203135408530452045104031D67
:1005D000EA2AEB2A6C2B831603133C08803AFF00AF
:1005E00080307F02031DF62A02303B02031CF92AE9
:1005F000FA2A6C2B831603133A08F3003908F20029
:100600003808F1003708F0004030F7008930F60074
:100610007030F5005F30F4000A168A1531240A1292
:100620008A110318142B152B1E2BF7308316031376
:10063000BB070318BC0AFF30BC07262BF830831613
:100640000313BB070318BC0AFF30BC073B080A12A0
:100650008A1540210A128A11831203134108831656
:100660000313BA0083120313400883160313B9005F
:10067000831203133F0883160313B8008312031376
:100680003E0883160313B7004408F3004308F20042
:100690004208F1004108F0003A08F7003908F60076
:1006A0003808F5003708F4000A168A117F200A126C
:1006B0008A11730883160313B6007208B500710817
:1006C000B4007008B3000030C4000030C300003034
:1006D000C2000030C100F02B8316031344088312BC
:1006E0000313D40083160313430883120313D300A8
:1006F00083160313420883120313D20083160313D5
:10070000410883120313D1000A168A1103200A122A
:100710008A1183120313540883160313B60083123D
:100720000313530883160313B500831203135208EF
:1007300083160313B40083120313510883160313A3
:10074000B3003608F3003508F2003408F10033082E
:10075000F00000300A168A15D3240A128A11730891
:1007600083120313E9007208E8007108E7007008BB
:10077000E60083160313440883120313ED00831667
:100780000313430883120313EC0083160313420878
:1007900083120313EB008316031341088312031320
:1007A000EA000A168A1529210A128A1183120313F4
:1007B000690883160313C4008312031368088316A1
:1007C0000313C30083120313670883160313C200C5
:1007D00083120313660883160313C100BB01BC0117
:1007E000C801C80A4808A90001300310A90DFF3E3E
:1007F000031DF52B0310290D693E84000A128A158A
:100800000A200A128A11AA000A128A150A200A125C
:100810008A11AB000A128A150A200A128A11AC004A
:100820000A128A150A200A128A11AD002D08360212
:10083000031D242C2C083502031D242C2B08340204
:10084000031D242C2A0833020318272C282C292CBA
:10085000332C0130A9002908C8070A304806031DB7
:10086000322C332CF22B48084507A9004608031800
:10087000460AAA003B082907AB003C0803183C0ABB
:100880002A07AC002B08BF022C08031CC003C002BF
:100890004508460403194D2C4E2C542CFF30BF073D
:1008A0000318C00AFF30C00703303D05A90000301F
:1008B0003E05AA0029082A0403195F2C602C662C27
:1008C000FF30BF070318C00AFF30C0073D1D692C69
:1008D0006A2CB62C03303D05A90000303E05AA0065
:1008E00029082A040319752C762C952C2D30A90083
:1008F000470884002908831380000130A9002908D3
:10090000C707952C303083160313A90047088400CD
:100910002908831380000130A9002908C707FF3088
:10092000BF070318C00AFF30C0074008803AFF0025
:1009300080307F02031D9E2C01303F020318A12C42
:10094000A22C822C432D203083160313A9004708C4
:1009500084002908831380000130A9002908C707F3
:10096000FF30BF070318C00AFF30C0074008803AB5
:10097000FF0080307F02031DBF2C01303F020318AF
:10098000C22CC32CA32C0330831603133D05A900EE
:1009900000303E05AA0029082A040319D02CD12CC6
:1009A000432D2D30A90047088400290883138000B7
:1009B0000130A9002908C707432D4808A9000130C4
:1009C0000310A90DFF3E031DE02C0310290D693E05
:1009D00084000A128A150A200A128A11F0000A12EB
:1009E0008A150A200A128A11F1000A128A150A20B1
:1009F0000A128A11F2000A128A150A200A128A11B2
:100A0000F3003608F7003508F6003408F50033081F
:100A1000F4000A168A15CB230A128A11730883166A
:100A20000313BA007208B9007108B8007008B70063
:100A30000030F3000030F2000030F1000A30F00026
:100A40003A08F7003908F6003808F5003708F400CE
:100A50000A168A151E230A128A11730883160313B5
:100A6000BA007208B9007108B8007008B7003708FA
:100A7000303EA90047088400290883138000013014
:100A8000A9002908C707013083160313C802480AC2
:100A9000031D4B2D4C2DDD2C602D303083160313A0
:100AA000A900470884002908831380000130A900A9
:100AB0002908C707FF30BB070318BC0AFF30BC0773
:100AC0003C08803AFF0080307F02031D692D013011
:100AD0003B0203186C2D6D2D4D2D83160313460814
:100AE000803AFF0080307F02031D782D09304502D7
:100AF000031C7B2D7C2D832D083083160313A90046
:100B00002908C800892D831603134508A900290860
:100B1000C8004808A900AA012908C5022A08031C20
:100B2000C603C60248080319962D972DA22D2E3014
:100B3000A900470884002908831380000130A90018
:100B40002908C70748080A128A1540210A128A1183
:100B500083120313410883160313B1008312031396
:100B6000400883160313B000831203133F08831653
:100B70000313AF00831203133E0883160313AE0062
:100B8000310883120313AB0083160313300883125A
:100B90000313AA00831603132F0883120313A9005B
:100BA000831603132E0883120313A800831603135E
:100BB000440883120313A700831603134308831208
:100BC0000313A60083160313420883120313A50020
:100BD00083160313410883120313A4000A128A1513
:100BE0009F240A128A11831203132708D4002608AF
:100BF000D3002508D2002408D1000A168A11032048
:100C00000A128A1183120313540883160313B600C1
:100C100083120313530883160313B50083120313BF
:100C2000520883160313B40083120313510883166A
:100C30000313B300BC2E4808A90001300310A90D0E
:100C4000FF3E031D1E2E0310290D693E84000A126B
:100C50008A150A200A128A11F0000A128A150A203F
:100C60000A128A11F1000A128A150A200A128A1140
:100C7000F2000A128A150A200A128A11F3003608B5
:100C8000F7003508F6003408F5003308F4000A16BA
:100C90008A15CB230A128A11730883160313BA002C
:100CA0007208B9007108B8007008B7000030F3008E
:100CB0000030F2000030F1000A30F0003A08F7008E
:100CC0003908F6003808F5003708F4000A168A15C6
:100CD0001E230A128A11730883160313BA007208BE
:100CE000B9007108B8007008B7003708303EA90095
:100CF000470884002908831380000130A9002908CF
:100D0000C7074808A90001300310A90DFF3E031DC5
:100D1000842E0310290D693E84000A128A150A20C8
:100D20000A128A11F0000A128A150A200A128A1180
:100D3000F1000A128A150A200A128A11F2000A1218
:100D40008A150A200A128A11F3003608F7003508BE
:100D5000F6003408F5003308F4000A168A151E233D
:100D60000A128A11730883160313B6007208B500BD
:100D70007108B4007008B3000130C802480A031DAE
:100D8000C22EC32E1B2ED52E3030A900470884005A
:100D90002908831380000130A9002908C707FF3004
:100DA000C5070318C60AFF30C60745084604031DD9
:100DB000DA2EDB2EC42EDA2F45084604031DE12E61
:100DC000E22EF02E3608350434043304031DE92ED8
:100DD000EA2EF02E0130C5070318C60A0030C607F8
:100DE0004608803A803C031DF72E45084802031848
:100DF000FA2EFB2E022F831603134508A90029089B
:100E0000C8001A2F831603134608803AA9008030C1
:100E10002902031D0D2F480845020318102F112F1A
:100E20001A2F831603134808A900AA012908C50030
:100E30002A08C600831603133F0840040319212F14
:100E4000222F342F03303D05A90000303E05AA00B3
:100E500029082A0403192D2F2E2F342FFF30BF0706
:100E60000318C00AFF30C0073E1F372F382F532FFB
:100E70004608803AA9004008803A2902031D422F03
:100E80003F0845020318452F462F4F2F83160313A3
:100E90004508BF024608031CC003C002532F831637
:100EA0000313BF01C0014008803A803C031D5A2F44
:100EB0003F08480203185D2F5E2F6A2F8316031325
:100EC0004808A900AA012908BF022A08031CC00378
:100ED000C0026E2F83160313BF01C0013D1D712F89
:100EE000722FA72F03303D05A90000303E05AA0050
:100EF00029082A0403197D2F7E2F892F2D30A90060
:100F0000470884002908831380000130A9002908BC
:100F1000C7073F08400403198E2F8F2FDA2F303078
:100F2000A900470884002908831380000130A90024
:100F30002908C707FF30BF070318C00AFF30C007E2
:100F40003F084004031DA52FA62F8F2FDA2F3F083F
:100F500040040319AC2FAD2FC42F2030A90047083F
:100F600084002908831380000130A9002908C707DD
:100F7000FF30BF070318C00AFF30C0073F08400416
:100F8000031DC32FC42FAD2F03303D05A900003032
:100F90003E05AA0029082A040319CF2FD02FDA2FE3
:100FA0002D30A900470884002908831380000A1601
:100FB0008A11422D0130A007FF30200784000A1259
:100FC0008A150A200A128A11A9002908C8004808AF
:100FD000031DEB2FEE2F0A168A11352D47088400CA
:100FE0008313800108008313C9308400EE300A1691
:100FF0008A15AF200A128A1183010A168A154A2E11
:10100000FF1B0A2883137F1883170008840A03191B
:10101000FF0A080008308A000408840A82070034A6
:101020000034003480343F34003400342034413400
:1010300000340034C8344234003400347A34443448
:10104000003440341C34463400345034C334473404
:1010500000342434743449348034963418344B3496
:101060002034BC34BE344C3428346B346E344E34AB
:10107000F934023415345034EC347834AD346034FF
:10108000CA34F234493471340034003480343F348B
:10109000CD34CC34CC343D340A34D73423343C34CE
:1010A0006F34123483343A341734B734D13438348B
:1010B000AC34C53427343734BD3437348634353412
:1010C0009534BF34D63433347734CC342B34323483
:1010D0005F34703489343034FF34E634DB342E34FA
:1010E0000834E5343C341E3460344234A2340D34C8
:1010F00001340034003400340A3400340034003445
:101100006434003400340034E834033400340034F0
:101110001034273400340034A034863401340034D1
:10112000403442340F3400348034963498340034E0
:101130000034E134F53405340034CA349A343B3495
:1011400050346F347434313420342034203420341B
:10115000203450344F34543432342034203420344A
:10116000203443344F344E34543400342534303436
:1011700034342E343234663420342534303434342C
:0C1180002E34323466340034563400340F
:1011940000300A168A15E7200A128A1501300A1649
:1011A4008A15E7200A128A15080083120313A10185
:1011B400F81FDD28DE28E528F709F809F70A0319DE
:1011C400F80AA101A10AFA1FE828E928F228F90976
:1011D400FA09F90A0319FA0A0130FB007B08A1068F
:1011E400A201A301770878040319F928FA28312900
:1011F400A001A00A082901300310F70DF80DFF3EE5
:10120400031DFE280130FB007B08A007F81F0B29F3
:101214000C29FD2801300310A20DA30DFF3E031D70
:101224000D2978087A02031D192977087902031C0D
:101234001C291D2924297708F9027808031CFA03BC
:10124400FA02221401300310F80CF70CFF3E031DC0
:1012540025290130A002031D302931290C29210838
:101264000319352936293B29A209A309A20A03191E
:10127400A30A2308F8002208F700080083120313C6
:10128400D000D01F46294729F42AD009D00A500893
:10129400803A123E031C4F295029382A0A30F7009D
:1012A4000030F8005008F200F301F21BF30364303D
:1012B400F0000030F1000A168A1572230A128A150A
:1012C4007108FA007008F9000A128A15D7200A1268
:1012D4008A15770883120313C20001300310C20D6C
:1012E400FF3E031D70290310420D593E84000A126B
:1012F4008A150A200A128A15C3000A128A150A20BE
:101304000A128A15C4000A128A150A200A128A15BA
:10131400C5000A128A150A200A128A15C600460850
:10132400A7004508A6004408A5004308A4006430AB
:10133400F7000030F8005008F900FA01F91BFA032D
:101344000A128A15D7200A128A1577088312031302
:10135400C70001300310C70DFF3E031DAC29031065
:10136400470D7D3E84000A128A150A200A128A1546
:10137400C8000A128A150A200A128A15C9000A121C
:101384008A150A200A128A15CA000A128A150A2026
:101394000A128A15CB004B08AB004A08AA00490878
:1013A400A9004808A8000A128A159F240A128A155F
:1013B400831203132708CF002608CE002508CD008A
:1013C4002408CC000A30F0000030F1005008F2008C
:1013D400F301F21BF3030A168A1572230A128A1503
:1013E400700883120313C20001300310C20DFF3EC4
:1013F400031DF7290310420D353E84000A128A1595
:101404000A200A128A15C3000A128A150A200A122F
:101414008A15C4000A128A150A200A128A15C50000
:101424000A128A150A200A128A15C6004608A7005D
:101434004508A6004408A5004308A4004F08AB00D3
:101444004E08AA004D08A9004C08A8000A128A15E3
:101454009F240A128A15831203132708C100260841
:10146400C0002508BF002408BE009E2C5008803A06
:10147400753E031C3E2A3F2AC72A0A30F00000307A
:10148400F1005008F200F301F21BF3030A168A1567
:1014940072230A128A15700883120313C2000130E2
:1014A4000310C20DFF3E031D522A0310420D353EA8
:1014B40084000A128A150A200A128A15C3000A1225
:1014C4008A150A200A128A15C4000A128A150A20EB
:1014D4000A128A15C5000A128A150A200A128A15E8
:1014E400C6004608A7004508A6004408A50043080E
:1014F400A4000A30F7000030F8005008F900FA019F
:10150400F91BFA030A128A15D7200A128A157708DA
:1015140083120313C70001300310C70DFF3E031DE0
:101524008E2A0310470D593E84000A128A150A2098
:101534000A128A15C8000A128A150A200A128A1584
:10154400C9000A128A150A200A128A15CA000A1248
:101554008A150A200A128A15CB004B08AB004A08E8
:10156400AA004908A9004808A8000A128A159F245D
:101574000A128A15831203132708C1002608C00023
:101584002508BF002408BE009E2C5008C20001306C
:101594000310C20DFF3E031DCA2A0310420D353E3F
:1015A40084000A128A150A200A128A15C3000A1234
:1015B4008A150A200A128A15C4000A128A150A20FA
:1015C4000A128A15C5000A128A150A200A128A15F7
:1015D400C6004608C1004508C0004408BF004308CF
:1015E400BE009E2C5008803A123E031CFA2AFB2AA5
:1015F400E32B0A30F7000030F8005008F200F30142
:10160400F21BF3036430F0000030F1000A168A156F
:1016140072230A128A157108FA007008F9000A1276
:101624008A15D7200A128A15770883120313C20079
:1016340001300310C20DFF3E031D1B2B0310420D8E
:10164400253E84000A128A150A200A128A15C3004C
:101654000A128A150A200A128A15C4000A128A1567
:101664000A200A128A15C5000A128A150A200A12CB
:101674008A15C6004608A7004508A6004408A50028
:101684004308A4006430F7000030F8005008F90063
:10169400FA01F91BFA030A128A15D7200A128A15CD
:1016A400770883120313C70001300310C70DFF3EF0
:1016B400031D572B0310470D493E84000A128A1557
:1016C4000A200A128A15C8000A128A150A200A1268
:1016D4008A15C9000A128A150A200A128A15CA0034
:1016E4000A128A150A200A128A15CB004B08AB008D
:1016F4004A08AA004908A9004808A8000A128A153D
:101704009F240A128A15831203132708CF00260880
:10171400CE002508CD002408CC000A30F0000030AB
:10172400F1005008F200F301F21BF3030A168A15C4
:1017340072230A128A15700883120313C20001303F
:101744000310C20DFF3E031DA22B0310420D013EE8
:1017540084000A128A150A200A128A15C3000A1282
:101764008A150A200A128A15C4000A128A150A2048
:101774000A128A15C5000A128A150A200A128A1545
:10178400C6004608A7004508A6004408A50043086B
:10179400A4004F08AB004E08AA004D08A9004C084D
:1017A400A8000A128A159F240A128A1583120313A9
:1017B4002708C1002608C0002508BF002408BE0071
:1017C4009E2C5008803A753E031CE92BEA2B722CA0
:1017D4000A30F0000030F1005008F200F301F21B6F
:1017E400F3030A168A1572230A128A1570088312E3
:1017F4000313C20001300310C20DFF3E031DFD2B75
:101804000310420D013E84000A128A150A200A12AE
:101814008A15C3000A128A150A200A128A15C400FE
:101824000A128A150A200A128A15C5000A128A1594
:101834000A200A128A15C6004608A7004508A60011
:101844004408A5004308A4000A30F7000030F8005B
:101854005008F900FA01F91BFA030A128A15D72075
:101864000A128A15770883120313C7000130031084
:10187400C70DFF3E031D392C0310470D253E840080
:101884000A128A150A200A128A15C8000A128A1531
:101894000A200A128A15C9000A128A150A200A1295
:1018A4008A15CA000A128A150A200A128A15CB0060
:1018B4004B08AB004A08AA004908A9004808A80038
:1018C4000A128A159F240A128A1583120313270801
:1018D400C1002608C0002508BF002408BE009E2CB5
:1018E4005008C20001300310C20DFF3E031D752CC9
:1018F4000310420D013E84000A128A150A200A12BE
:101904008A15C3000A128A150A200A128A15C4000D
:101914000A128A150A200A128A15C5000A128A15A3
:101924000A200A128A15C6004608C1004508C000EC
:101934004408BF004308BE000800831203132708AD
:101944008039AC002C08B1002708AC002C07AD008E
:101954002D08B700A61FAF2CB02CB12C37143708B4
:101964000319B52CB62CC52C370A031DBA2CBB2C75
:10197400C32C0030A7000030A6000030A5000030C2
:10198400A400A617CD2C0030A7000030A60000301C
:10199400A5000030A4002B088039AC002C08B10647
:1019A4002B08AC002C07AD002D08B600AA1FDB2CB9
:1019B400DC2CDD2C361436080319E12CE22CF12C36
:1019C400360A031DE62CE72CEF2C0030AB00003068
:1019D400AA000030A9000030A800AA17F92C003092
:1019E400AB000030AA000030A9000030A80036087F
:1019F4000319FD2CFE2C032D3708031D022D032D86
:101A04000C2D0030A7000030A6000030A5000030E7
:101A1400A400FF2F2408AC002C08F0002A080A16A2
:101A24008A1599210A128A15710883120313BD00BD
:101A34007008BC003C08AC00AD01AE01AF012F083A
:101A4400B5002E08B4002D08B3002C08B2003D08E0
:101A5400AC00AD01AE01AF012F08BB002E08BA00E7
:101A64002D08B9002C08B8002508AC002C08F0009B
:101A740029080A168A1599210A128A1571088312EF
:101A84000313BD007008BC003C08AC00AD01AE01FE
:101A9400AF012C08B2072D0803110318013E0319E6
:101AA400542DB3072E0803110318013E03195B2DAF
:101AB400B4072F0803110318013E0319622DB5075B
:101AC4003D08AC00AD01AE01AF012C08B8072D08EC
:101AD40003110318013E0319702DB9072E080311D1
:101AE4000318013E0319772DBA072F0803110318B1
:101AF400013E03197E2DBB072608AC002C08F0001C
:101B040028080A168A1599210A128A15710883125F
:101B14000313BD007008BC003C08AC00AD01AE016D
:101B2400AF012C08B2072D0803110318013E031955
:101B34009C2DB3072E0803110318013E0319A32D8E
:101B4400B4072F0803110318013E0319AA2DB50782
:101B54003D08AC00AD01AE01AF012C08B8072D085B
:101B640003110318013E0319B82DB9072E080311F8
:101B74000318013E0319BF2DBA072F0803110318D8
:101B8400013E0319C62DBB070830AC000310B20D8B
:101B9400B30DB40DB50DAC0BC82D2508AC002C0845
:101BA400F00028080A168A1599210A128A15710864
:101BB40083120313BD007008BC003C08AC003D0850
:101BC400AD00AE01AF012C08B2072D0803110318B4
:101BD400013E0319EE2DB3072E0803110318013E2D
:101BE4000319F52DB4072F0803110318013E031937
:101BF400FC2DB5072408AC002C08F00029080A16AF
:101C04008A1599210A128A15710883120313BD00DB
:101C14007008BC003C08AC003D08AD00AE01AF014B
:101C24002C08B2072D0803110318013E03191B2EBB
:101C3400B3072E0803110318013E0319222EB4071B
:101C44002F0803110318013E0319292EB507083084
:101C5400AC000310B20DB30DB40DB50DAC0B2B2EAF
:101C64002408AC002C08F00028080A168A159921CB
:101C74000A128A15710883120313BD007008BC0090
:101C84003C08AC003D08AD00AE01AF012C08B20722
:101C94002D0803110318013E0319512EB3072E0812
:101CA40003110318013E0319582EB4072F0803111A
:101CB4000318013E03195F2EB5072508AC002C0854
:101CC400F0002A080A168A1599210A128A15710841
:101CD40083120313BD007008BC003C08AC003D082F
:101CE400AD00AE01AF012C08B8072D08031103188D
:101CF400013E03197E2EB9072E0803110318013E75
:101D04000319852EBA072F0803110318013E03197E
:101D14008C2EBB072608AC002C08F00029080A16F4
:101D24008A1599210A128A15710883120313BD00BA
:101D34007008BC003C08AC003D08AD00AE01AF012A
:101D44002C08B8072D0803110318013E0319AB2E04
:101D5400B9072E0803110318013E0319B22EBA075E
:101D64002F0803110318013E0319B92EBB072608D7
:101D7400AC002C08F0002A080A168A1599210A12C8
:101D84008A15710883120313BD007008BC003C0857
:101D9400AC003D08AD00AE01AF0108300310AC0D3E
:101DA400AD0DAE0DAF0DFF3E031DD02E2C08B807B0
:101DB4002D0803110318013E0319E12EB9072E085B
:101DC40003110318013E0319E82EBA072F08031163
:101DD4000318013E0319EF2EBB073208AC00330889
:101DE400AD003408AE003508AF0018300310AF0C56
:101DF400AE0CAD0CAC0CFF3E031DF82E2C08B8073E
:101E04002D0803110318013E0319092FB9072E08E1
:101E140003110318013E0319102FBA072F080311E9
:101E24000318013E0319172FBB070830AC00031039
:101E3400B20DB30DB40DB50DAC0B192F3708360721
:101E4400AC00AD01AD0D2C08823EBC002D0803187A
:101E5400013EFF3EBD004B2F0130AC000310B80D16
:101E6400B90DBA0DBB0DAC0B302FB51F3A2F3B2F5C
:101E74003C2F38140130AC000310B20DB30DB40D77
:101E8400B50DAC0B3E2FFF30BC070318BD0AFF3065
:101E9400BD07BA1F4E2F4F2F2E2FB601B51F532F3C
:101EA400542F702FFF303205AC00FF303305AD00E6
:101EB400FF303405AE007F303505AF002F082E0407
:101EC4002D042C040319672F682F6B2FB601B60A53
:101ED400702F381C6E2F6F2F702F682F3608031940
:101EE400742F752FA62F0130B80700300318013066
:101EF400B907003003180130BA0700300318013065
:101F0400BB073B1C862F872FA62F3808AC00390847
:101F1400AD003A08AE003B08AF000130B0002F0D11
:101F2400AF0CAE0CAD0CAC0CB00B912F2F08BB005A
:101F34002E08BA002D08B9002C08B8000130BC07DF
:101F44000318BD0A0030BD073D08803AFF00803009
:101F54007F02031DAF2FFF303C02031CB22FB32FAF
:101F6400BE2F7F3083120313BB008030BA000030D1
:101F7400B9000030B800F32F831203133D08803AF0
:101F8400FF0080307F02031DC92F01303C0203187B
:101F9400CC2FCD2FD92F003083120313BB00003078
:101FA400BA000030B9000030B800B101F32F831239
:101FB40003133C08AC002C08B700FF30B805FF3011
:101FC400B9057F30BA050030BB05371CEA2FEB2F6B
:101FD400EC2FBA173708AC0003102C0CAD002D08F9
:101FE400BB003108AC002C08BB043B08A7003A082E
:0C1FF400A6003908A5003808A400080069
:10200600031083120313530D540DD5005508DB003E
:102016005B08031D0F28102819280030D400003053
:10202600D3000030D2000030D1007E285108D50000
:102036005208D6005308D7005408D8001F300310A2
:10204600D80CD70CD60CD50CFF3E031D22285508FC
:10205600D9005908DA00D317FF30D105FF30D20571
:10206600FF30D3050030D4059630DB02DB1F3C2859
:102076003D2857285B08803A973E03184328442892
:102086004528102801300310D40CD30CD20CD10CE7
:10209600FF3E031D46280130D5005508DB07031D0A
:1020A6005528562845286E2820305B02031C5C28DC
:1020B6005D28692810280130D5000310D10DD20DF6
:1020C600D30DD40DD50B60280130DB025B08031D50
:1020D6006D286E285E285A080319722873287E28F0
:1020E600D109D209D309D409D10A0319D20A03198D
:1020F600D30A0319D40A08000310720D730DF800F1
:10210600780883120313A5002508031D8B288C2845
:1021160095280030F3000030F2000030F100003066
:10212600F0003C290310760D770DF8007808A4001E
:102136002408031D9F28A028A1288C28F217FF3009
:10214600F005FF30F105FF30F2050030F305F61714
:10215600FF30F405FF30F505FF30F6050030F705D2
:102166000030A3000030A2000030A1000030A00023
:102176007F30A502A0302407F8007808A502203099
:10218600F8007808A4000130F8000310A00DA10D96
:10219600A20DA30DF80BC82877087302031DDD28CE
:1021A60076087202031DDD2875087102031DDD28FD
:1021B60074087002031CE028E128F0287408F00275
:1021C6007508031C750FF1027608031C760FF202E0
:1021D6007708031C770FF30220140130F800031070
:1021E600F00DF10DF20DF30DF80BF2280130A402FB
:1021F600031DFE28FF28C628A51F022903291D291D
:102206002508803A9F3E031809290A290B298C289C
:1022160001300310A30CA20CA10CA00CFF3E031D61
:102226000C290130F8007808A507031D1B291C2975
:102236000B29342920302502031C222923292F2982
:102246008C280130F8000310A00DA10DA20DA30DDE
:10225600F80B26290130A5022508031D3329342948
:1022660024292308F3002208F2002108F10020089F
:10227600F000080077088039F80078088312031305
:10228600A4007708F8007807F9007908AB00F61F74
:102296004D294E294F292B142B080319532954294C
:1022A60064292B0A031D5829592961290030F70092
:1022B6000030F6000030F5000030F400F617F701A4
:1022C6006C290030F7000030F6000030F5000030D1
:1022D600F40073088039F8007808A4067308F8003B
:1022E6007807F9007908AC00F21F7A297B297C2946
:1022F6002C142C0803198029812991292C0A031DE5
:10230600852986298E290030F3000030F20000303E
:10231600F1000030F000F217F30199290030F300C4
:102326000030F2000030F1000030F0007308720453
:1023360071047004031DA029A129BA290030F700F1
:102346000030F6000030F5000030F4008030F6046E
:102356007F30F7042408F8007808F7047708F300BC
:102366007608F2007508F1007408F0001F2B2B08A0
:10237600031DBE29BF29C8290030F3000030F20032
:102386000030F1000030F0001F2B2B08F800F90197
:102396007908FB002C087802FA00031CFB037A0874
:1023A6007F3EA5007B080318013E003EA600770885
:1023B600A3007608A2007508A1007408A0000030EA
:1023C600F7000030F6000030F5000030F400003071
:1023D600AA000030A9000030A8000030A700AC0118
:1023E600442A2C080319F829F929192A0130F8007A
:1023F6000310A00DA10DA20DA30DF80BFB290130B2
:10240600F8000310F40DF50DF60DF70DF80B042A80
:10241600AA1F0E2A0F2A102A74140130F80003107E
:10242600A70DA80DA90DAA0DF80B122A73082302F1
:10243600031D272A72082202031D272A710821027A
:10244600031D272A70082002031C2A2A2B2A402A49
:102456002A177008A0027108031C710F332A342A48
:10246600A1027208031C720F392A3A2AA2027308C3
:10247600031C730F3F2A402AA3020130F800780894
:10248600AC071A302C02031C492A4A2AF4292308CD
:102496002204210420040319512A522A712A2714DE
:1024A600712A0130F8000310F40DF50DF60DF70D45
:1024B600F80B562AAA1F602A612A622A7414013070
:1024C600F8000310A70DA80DA90DAA0DF80B642A94
:1024D600FF30A5070318A60AFF30A607F61F742AC1
:1024E600752A542AAC01AA1F792A7A2A962AFF301D
:1024F6002705F800FF302805F900FF302905FA0006
:102506007F302A05FB007B087A04790478040319D6
:102516008D2A8E2A912AAC01AC0A962A741C942A1A
:10252600952A962A8E2A2C0803199A2A9B2ACC2A9F
:102536000130F407003003180130F50700300318A6
:102546000130F607003003180130F707771CAC2A74
:10255600AD2ACC2A7408F8007508F9007608FA0046
:102566007708FB000130FC007B0DFB0CFA0CF90C24
:10257600F80CFC0BB72A7B08F7007A08F6007908F6
:10258600F5007808F4000130A5070318A60A003004
:10259600A6072608803AFF0080307F02031DD52A51
:1025A600FF302502031CD82AD92AE72AFF308312D6
:1025B6000313A5000030A6000030F7000030F60037
:1025C6000030F5000030F400831203132608803A29
:1025D600FF0080307F02031DF22A01302502031816
:1025E600F52AF62A032B83120313A501A601003050
:1025F600F7000030F6000030F5000030F400A401CA
:10260600831203132508F8007808AB002B1C0C2B4B
:102616000D2B0F2BF617132B7F30F8007808F605D5
:102626002B08F8000310780CF9007908F700240845
:10263600F8007808F704B129080083120313D100C3
:102646006E305102031C282B292B362C3F30A70055
:102656000030A6000030A5000030A4006430F6006B
:102666000030F7005108C200C3014208F8004308D1
:10267600F9000A168A15FA210A168A1176088312B3
:102686000313C40001300310C40DFF3E031D462B87
:102696000310440D7D3E84000A128A150A200A168C
:1026A6008A11C5000A128A150A200A168A11C6005E
:1026B6000A128A150A200A168A11C7000A128A15F2
:1026C6000A200A168A11C8004808AB004708AA0063
:1026D6004608A9004508A8000A128A159F240A166A
:1026E6008A11831203132708D0002608CF00250875
:1026F600CE002408CD000A30F6000030F70051085D
:10270600C200C3014208F2004308F3006430F0003F
:102716000030F1000A168A15C0210A168A117108BE
:10272600F9007008F8000A168A15FA210A168A11A5
:10273600760883120313C40001300310C40DFF3E54
:10274600031DA02B0310440D593E84000A128A155E
:102756000A200A168A11C5000A128A150A200A16C4
:102766008A11C6000A128A150A200A168A11C7009B
:102776000A128A150A200A168A11C8004808A700F4
:102786004708A6004608A5004508A4005008AB0067
:102796004F08AA004E08A9004D08A8000A128A157B
:1027A6009F240A168A11831203132708CC002608D1
:1027B600CB002508CA002408C9000A30F000003002
:1027C600F1005108C200C3014208F2004308F300B9
:1027D6000A168A15C0210A168A1170088312031375
:1027E600C40001300310C40DFF3E031DF52B03107A
:1027F600440D353E84000A128A150A200A168A11EB
:10280600C5000A128A150A200A168A11C6000A127B
:102816008A150A200A168A11C7000A128A150A2082
:102826000A168A11C8004808A7004708A6004608E5
:10283600A5004508A4004C08AB004B08AA004A08AE
:10284600A9004908A8000A128A159F240A168A11A7
:10285600831203132708C1002608C0002508BF00FD
:102866002408BE002A2D0B305102031C3B2C3C2CA5
:10287600E72C3F30A7000030A6000030A50000304E
:10288600A4000A30F6000030F7005108C200C30168
:102896004208F8004308F9000A168A15FA210A16B2
:1028A6008A11760883120313C40001300310C40D85
:1028B600FF3E031D592C0310440D593E84000A1295
:1028C6008A150A200A168A11C5000A128A150A20D4
:1028D6000A168A11C6000A128A150A200A168A11D1
:1028E600C7000A128A150A200A168A11C800480863
:1028F600AB004708AA004608A9004508A8000A1226
:102906008A159F240A168A11831203132708D000FA
:102916002608CF002508CE002408CD000A30F00096
:102926000030F1005108C200C3014208F20043081A
:10293600F3000A168A15C0210A168A117008831236
:102946000313C40001300310C40DFF3E031DA62C63
:102956000310440D353E84000A128A150A200A1611
:102966008A11C5000A128A150A200A168A11C6009B
:102976000A128A150A200A168A11C7000A128A152F
:102986000A200A168A11C8004808A7004708A600A8
:102996004608A5004508A4005008AB004F08AA0049
:1029A6004E08A9004D08A8000A128A159F240A1687
:1029B6008A11831203132708C1002608C0002508C0
:1029C600BF002408BE002A2D3F30A7000030A60015
:1029D6000030A5000030A4005108C20001300310E9
:1029E600C20DFF3E031DF22C0310420D353E84003E
:1029F6000A128A150A200A168A11C3000A128A15B3
:102A06000A200A168A11C4000A128A150A200A1612
:102A16008A11C5000A128A150A200A168A11C600EA
:102A26004608AB004508AA004408A9004308A800C8
:102A36000A128A159F240A168A118312031327087D
:102A4600C1002608C0002508BF002408BE000800F3
:102A560083160313C700A130A9002908B2000A1281
:102A66008A11DA2F2530480603193A2D3B2D472DBA
:102A76004808A9004708840029088313800001300C
:102A8600A9002908C707322DBF01C001BD01BE013B
:102A9600512D3D150130A9002908A0072008840002
:102AA6000A128A150A200A168A11A900AA012A08FA
:102AB600003A03195F2D642D2908303A03194C2D6D
:102AC600642D200884000A128A150A200A168A1123
:102AD6000A168A15D5200A168A11031C732D742D21
:102AE600B42D83160313BF01C0010A30F000003075
:102AF600F100831603134008F3003F08F2000A169C
:102B06008A154D210A168A11710883160313C0000F
:102B16007008BF00200884000A128A150A200A16C7
:102B26008A11D03EA900FF3003180030AA002908F8
:102B3600BF070318C00A2A08C0070130A9002908E0
:102B4600A007200884000A128A150A200A168A118C
:102B56000A168A15D5200A168A110318B32DB42D24
:102B6600782D83160313200884000A128A150A207A
:102B76000A168A112E3A031DC12DC22D072E3E17A5
:102B86000130A9002908A007C501C601F62D0A30A3
:102B9600F0000030F100831603134608F3004508E1
:102BA600F2000A168A154D210A168A117108831633
:102BB6000313C6007008C500200884000A128A158F
:102BC6000A200A168A11D03EA900FF3003180030E9
:102BD600AA002908C5070318C60A2A08C60701302D
:102BE600A9002908A007200884000A128A150A20CD
:102BF6000A168A110A168A15D5200A168A1103188A
:102C0600052E062ECA2D0D2EC501C6013E160D2E09
:102C16003E15292E013083160313A007FF30200727
:102C260084000A128A150A200A168A11C800A90009
:102C3600AA012A08003A0319212E322D2908003A42
:102C46000319FD2F663A03190B2E322D00303D0570
:102C5600A90007303E05AA0029082A040319342EC4
:102C6600372E0A128A11DC2E3E1E3A2E3B2E3F2E9E
:102C76000630C5000030C600320884008313000801
:102C8600C100840A0008C200840A0008C300840A3E
:102C96000008C4000430A9002908B2074408F3005C
:102CA6004308F2004208F1004108F0000030F70046
:102CB6000030F6000030F5000030F4000A168A15E0
:102CC60031240A168A110318692E6A2E872E831656
:102CD60003134408F3004308F2004208F1004108D8
:102CE600F0000A128A1103200A168A117308831645
:102CF6000313C4007208C3007108C2007008C10043
:102D06000330BD040030BE0483160313BB01BC01AF
:102D16004408F3004308F2004208F1004108F000BD
:102D26000030F7000030F6000030F5000030F40007
:102D36000A168A15D0220A168A110318A32EA42E63
:102D4600942F031083160313430D440D823EBB00DC
:102D5600FF3003180030BC00FF30BB070318BC0A65
:102D6600FF30BC070330F0000030F1003C08F300F0
:102D76003B08F2000A168A154D210A168A117108B7
:102D860083160313BC007008BB000A30F70000303E
:102D9600F8003C08FA003B08F9000A128A15D72009
:102DA6000A168A11780883160313BC007708BB003D
:102DB600BC1FDE2EDF2EE52EFF30BB070318BC0A34
:102DC600FF30BC073B03FF3A0A128A1540210A1658
:102DD6008A1183120313410883160313BA00831260
:102DE6000313400883160313B900831203133F0825
:102DF60083160313B800831203133E0883160313C6
:102E0600B700440883120313A7008316031343086D
:102E160083120313A60083160313420883120313B7
:102E2600A50083160313410883120313A400831617
:102E360003133A0883120313AB00831603133908EE
:102E460083120313AA00831603133808831203138D
:102E5600A90083160313370883120313A8000A1266
:102E66008A159F240A168A118312031327088316CC
:102E76000313BA0083120313260883160313B9003B
:102E860083120313250883160313B8008312031352
:102E9600240883160313B7003A08F3003908F20032
:102EA6003808F1003708F0003F30F7008030F600B0
:102EB6000030F5000030F4000A168A1531240A168F
:102EC6008A110318672F682F712FFF30831603139B
:102ED600BB070318BC0AFF30BC07942F83160313E5
:102EE6003A08F3003908F2003808F1003708F00014
:102EF6004130F7002030F6000030F5000030F400D5
:102F06000A168A1531240A168A11031C8B2F8C2F58
:102F1600942F013083160313BB070318BC0A003035
:102F2600BC07831603134608803AFF0080307F02F1
:102F3600031D9F2F0D3045020318A22FA32FEA2F42
:102F46008316031345080A168A1120230A168A11C6
:102F5600831203134108D5004008D4003F08D3006C
:102F66003E08D20083160313440883120313D900C4
:102F760083160313430883120313D800831603131F
:102F8600420883120313D7008316031341088312E2
:102F96000313D6000A128A1121200A168A118312F7
:102FA6000313550883160313C4008312031354082E
:102FB60083160313C30083120313530883160313E4
:102FC600C20083120313520883160313C10083162B
:102FD60003133C08803AFF0080307F02031DF52F63
:102FE6000A303B020318FA2F0A128A11A92A0A127A
:0A2FF6008A11FA2A0A128A11EE2F3E
:10314000831203131F119F151F129F16080083126D
:1031500003131F119F111F169F161F1408006400F0
:103160008001840A0406031900340406B0280130E3
:10317000F4000030F5000130F4070318F50A0030C0
:10318000F507BB2808008B170B160B178B160B11B6
:10319000831603139F171F129F12831203131F1707
:1031A0009F13831603130C170800F100F0013A3047
:1031B00071020318DC28DD28E52830307102031C79
:1031C000E228E328E528F001F00A700C0800F80076
:1031D0007808F600F701760883160313D100770804
:1031E000D2000130D7000030D800D501D601D3017C
:1031F000D4010530F0000030F1000A168A15B7201E
:103200000A168A1583160313D701D8010800F8009F
:10321000013083160313D5000030D6007808F6007D
:10322000F7017608D1007708D200D301D40101302C
:10323000D7000030D8001E30F0000030F1000A1630
:103240008A15B7200A168A1583160313D701D801E9
:103250000800803083120313E9066D08D5006C085E
:10326000D4006B08D3006A08D2006908D900680846
:10327000D8006708D7006608D6000A128A112120F4
:103280000A168A15831203135508E9005408E8004A
:103290005308E7005208E6000800F401F501701C2D
:1032A0005229532959297208F4070318F50A73089B
:1032B000F50701300310F20DF30DFF3E031D5A29EF
:1032C00001300310F10CF00CFF3E031D6129700862
:1032D0007104031D6C296D294F297508F1007408CC
:1032E000F0000800FB007B03031D7729782985295E
:1032F00079087F3EFA007A0883160313DD005D0823
:103300000A168A15E7200A168A1502307B06031D65
:103310008A298B2998297908BF3EFA007A088316F2
:103320000313DD005D080A168A15E7200A168A15C0
:103330000800F800F401F5017008F200F3017208CA
:10334000F6007308F700781CA629A729AD2976088E
:10335000F4070318F50A7708F50701300310F60D96
:10336000F70DFF3E031DAE290310F80C7808031D6E
:10337000BA29BB29A3297508F1007408F0000800D8
:10338000700871040319C529C629F529F501F50A44
:10339000D42901300310F00DF10DFF3E031DCA29A1
:1033A0000130F4007408F507F11FD729D829C9297D
:1033B00071087302031DDE2970087202031CE129E3
:1033C000E229E8297008F2027108031CF303F302F2
:1033D00001300310F10CF00CFF3E031DE929013010
:1033E000F502031DF429F529D8297308F1007208A4
:1033F000F0000800FB01FC01760877040319012A9C
:10340000022A392AFD01FD0A102A01300310F60DA7
:10341000F70DFF3E031D062A0130FA007A08FD076A
:10342000F71F132A142A052A01300310FB0DFC0D87
:10343000FF3E031D152A77087902031D212A76080D
:103440007802031C242A252A2C2A7608F8027708F9
:10345000031CF903F9027B1401300310F70CF60C7E
:10346000FF3E031D2D2A0130FD02031D382A392A93
:10347000142A7C08F7007B08F60008008312031367
:10348000A001A101672A20087907FC007A08FB0047
:103490000318FB0AA01F4D2AFB037B08FD007D08D3
:1034A00083120313FF007C0884000A128A1500208F
:1034B0000A168A150A168A1507210A168A15013076
:1034C00083120313A0070318A10A0030A1072008E4
:1034D0007907FC007A08FB000318FB0AA01F712A79
:1034E000FB037B08FD007D0883120313FF007C08AB
:1034F00084000A128A1500200A168A15003A031D54
:10350000822A832A432A08001430F0000030F10098
:103510000A168A15B7200A168A1530300A168A1537
:10352000E7200A168A150530F0000030F1000A166F
:103530008A15B7200A168A1530300A168A15E72030
:103540000A168A150A30F0000030F1000A168A15B2
:10355000B7200A168A1538300A168A15E7200A1687
:103560008A1510300A168A15E7200A168A150130C6
:103570000A168A15E7200A168A1506300A168A15D1
:10358000E7200A168A150C300A168A15E7200A1653
:103590008A1580300A168A15E7200A168A1508004F
:1035A00000307005F80000307105F90080307205B8
:1035B000FA007F307305FB007B087A0479047804F5
:1035C000031DE32AE42AEC2A0030F3000030F20065
:1035D0000030F1000030F00000307405F8000030D9
:1035E0007505F90080307605FA007F307705FB001D
:1035F0007B087A0479047804031DFF2A002B082B2A
:103600000030F7000030F6000030F5000030F40024
:1036100077087306031D162B76087206031D162BFA
:1036200075087106031D162B740870060319192BF3
:103630001A2B1C2B03101D2B031408007308720493
:10364000710470040319252B262B692BF901F90A43
:10365000362B0130F8000310F00DF10DF20DF30DD3
:10366000F80B2B2B0130F8007808F907F31F392BE2
:103670003A2B292B73087702031D482B7208760218
:10368000031D482B71087502031D482B7008740236
:10369000031C4B2B4C2B5A2B7008F4027108031C93
:1036A000710FF5027208031C720FF6027308031CF7
:1036B000730FF70201300310F30CF20CF10CF00C55
:1036C000FF3E031D5B2B0130F902031D682B692BA4
:1036D0003A2B7708F3007608F2007508F1007408B9
:1036E000F0000800F601F31F762B772B7E2BF209F2
:1036F000F309F20A0319F30AF601F60AF11F812B06
:10370000822B872BF009F109F00A0319F10A7008DE
:10371000710403198C2B8D2BBC2BF501F50A9B2B07
:1037200001300310F00DF10DFF3E031D912B013010
:10373000F4007408F507F11F9E2B9F2B902B710846
:103740007302031DA52B70087202031CA82BA92B62
:10375000AF2B7008F2027108031CF303F30201306F
:103760000310F10CF00CFF3E031DB02B0130F502ED
:10377000031DBB2BBC2B9F2B76080319C02BC12B21
:10378000C62BF209F309F20A0319F30A7308F100D0
:103790007208F00008000030FC000030FB00003030
:1037A000FA000030F9007308720471047004031900
:1037B000DA2BDB2B282CFD01FD0AEB2B0130F80066
:1037C0000310F00DF10DF20DF30DF80BE02B0130AD
:1037D000F8007808FD07F31FEE2BEF2BDE2B0130EE
:1037E000F8000310F90DFA0DFB0DFC0DF80BF12B91
:1037F00073087702031D062C72087602031D062C3F
:1038000071087502031D062C70087402031C092C34
:103810000A2C192C7008F4027108031C710FF502B0
:103820007208031C720FF6027308031C730FF70271
:10383000791401300310F30CF20CF10CF00CFF3E84
:10384000031D1A2C0130FD02031D272C282CEF2B01
:103850007C08F3007B08F2007A08F1007908F00098
:10386000080000307005F80000307105F900803064
:103870007205FA007F307305FB007B087A04790437
:103880007804031D442C452C4D2C0030F3000030EF
:10389000F2000030F1000030F00000307405F80054
:1038A00000307505F90080307605FA007F30770525
:1038B000FB007B087A0479047804031D602C612CDA
:1038C000692C0030F7000030F6000030F5000030C1
:1038D000F400F31F6C2C6D2C912C0030F80000309C
:1038E000F9000030FA008030FB007008F80271081F
:1038F000031C710F7C2C7D2CF9027208031C720FC3
:10390000822C832CFA027308031C730F882C892CD9
:10391000FB027B08F3007A08F2007908F1007808CE
:10392000F000F71F942C952CB92C0030F8000030D3
:10393000F9000030FA008030FB007408F8027508C6
:10394000031C750FA42CA52CF9027608031C760F16
:10395000AA2CAB2CFA027708031C770FB02CB12CE1
:10396000FB027B08F7007A08F6007908F500780872
:10397000F4008030F3068030F70677087302031DE9
:10398000CB2C76087202031DCB2C75087102031D27
:10399000CB2C740870020318CE2CCF2CD12C031022
:1039A000D22C03140800F80078080319D82CD92C5D
:1039B000ED2CF31FDC2CDD2CED2C7009FA007109C5
:1039C000FB007209FC007309FD00FA0A0319FB0AE7
:1039D0000319FC0A0319FD0AF52C7308FD0072088F
:1039E000FC007108FB007008FA007308720471048F
:1039F0007004031DFC2CFD2C062D0030F30000305C
:103A0000F2000030F1000030F0008C2D9630F40010
:103A10007408F900182D0130F4007408F90701301A
:103A20000310FD0CFC0CFB0CFA0CFF3E031D102DCB
:103A3000FE307D05031D1D2D1E2D0B2D3A2D013051
:103A4000F4007408F9070130FA0700300318013058
:103A5000FB07003003180130FC0700300318013069
:103A6000FD0701300310FD0CFC0CFB0CFA0CFF3EB3
:103A7000031D322DFF307D05031D3F2D402D1F2DD1
:103A80004C2D0130F9020130F4000310FA0DFB0D4A
:103A9000FC0DFD0DF40B452DFC1B4F2D502D562D0F
:103AA000023079020318552D562D412D7918592DC4
:103AB0005A2D622DFF30FA05FF30FB057F30FC05E3
:103AC000FF30FD050310F90C7908F400F501F6014B
:103AD000F70118300310F40DF50DF60DF70DFF3E4C
:103AE000031D6A2D7408FA047508FB047608FC04AB
:103AF0007708FD04780803197E2D7F2D842DF31F90
:103B0000822D832D842DFD177D08F3007C08F200A3
:103B10007B08F1007A08F00008007008F8007108CE
:103B2000F9007208FA000310790D7A0DFB007B088A
:103B300083120313A5002508031D9F2DA02DA92D79
:103B40000030F3000030F2000030F1000030F000EF
:103B5000492E7408F8007508F9007608FA00031079
:103B6000790D7A0DFB007B08A4002408031DB92DF4
:103B7000BA2DBB2DA02DF117FF30F005FF30F10558
:103B80000030F205F517FF30F405FF30F505003081
:103B9000F6050030A3000030A2000030A100003084
:103BA000A0007F30A50298302407F8007808A5020D
:103BB0001830F8007808A4000130F8000310A00DB8
:103BC000A10DA20DA30DF80BDE2D76087202031DC8
:103BD000EF2D75087102031DEF2D74087002031C90
:103BE000F22DF32DFE2D7408F0027508031C750FDD
:103BF000F1027608031C760AF20220140130031049
:103C0000F00DF10DF20DFF3E031DFF2D0130A4025A
:103C1000031D0B2E0C2EDC2DA51F0F2E102E2A2E71
:103C20002508803A973E0318162E172E182EA02D21
:103C300001300310A30CA20CA10CA00CFF3E031D2D
:103C4000192E0130F8007808A507031D282E292E0B
:103C5000182E412E18302502031C2F2E302E3C2EFC
:103C6000A02D0130F8000310A00DA10DA20DA30D91
:103C7000F80B332E0130A5022508031D402E412EDE
:103C8000312E2308F3002208F2002108F100200859
:103C9000F00008000A128A110E200A168A150A1668
:103CA0008A1584220A168A150A168A15C3200A164E
:103CB0008A150A128A15CA200A168A15F901F90A04
:103CC00001300A168A1572210A168A159130F900F8
:103CD0008030FA000A168A153E220A168A150A163C
:103CE0008A15A7200A168A15831203139F140C1332
:103CF0001E08EE00EF016E0883160313DB0083122B
:103D000003136F0883160313DC005B08831203138D
:103D1000EF00EE016E0883160313DB00831203131A
:103D20006F0883160313DC001E085B07831203135E
:103D3000EE00831603135C0803185C0A8312031356
:103D4000EF006E0883160313DB00831203136F0862
:103D500083160313DC00403083120313A700A03046
:103D6000A6000030A5000030A400831603135B08F2
:103D7000F0005C08F100F201F30100300A168A1528
:103D8000D3240A168A15730883120313AB00720832
:103D9000AA007108A9007008A8000A128A159F24B9
:103DA0000A168A1583120313270883160313D000FB
:103DB00083120313260883160313CF008312031301
:103DC000250883160313CE008312031324088316D9
:103DD0000313CD004430F3008030F2000030F100D6
:103DE0000030F0005008F7004F08F6004E08F500CC
:103DF0004D08F4000A168A113D210A168A15730827
:103E000083160313D0007208CF007108CE0070082B
:103E1000CD000A168A15A0200A168A1583120313EC
:103E20009F140C131E08EE00EF016E088316031397
:103E3000D900831203136F0883160313DA0059089D
:103E400083120313EF00EE016E0883160313D900EB
:103E5000831203136F0883160313DA001E08590731
:103E600083120313EE00831603135A0803185A0A29
:103E700083120313EF006E0883160313D900831215
:103E800003136F0883160313DA0040308312031301
:103E9000A700A030A6000030A5000030A4008316C3
:103EA00003135908F0005A08F100F201F301003041
:103EB0000A168A15D3240A168A1573088312031367
:103EC000AB007208AA007108A9007008A8000A12C5
:103ED0008A159F240A168A1583120313270883164E
:103EE0000313CC0083120313260883160313CB009D
:103EF00083120313250883160313CA0083120313C6
:103F0000240883160313C9004430F3008030F20004
:103F10000030F1000030F0004C08F7004B08F600CC
:103F20004A08F5004908F4000A168A113D210A16CC
:103F30008A15730883160313CC007208CB0071082E
:103F4000CA007008C900A73083120313EE006E0880
:103F500083160313A0005008A4004F08A3004E08C6
:103F6000A2004D08A1004C08A8004B08A7004A0871
:103F7000A6004908A500DE300A168A112B250A166C
:103F80008A15F901F90A02300A168A1572210A16F1
:103F90008A15DE30F9000030FA000A168A153E2232
:103FA0000A168A15053083120313EE006E08F90015
:103FB00002300A168A1572210A168A15B530F900E0
:103FC0008030FA000A168A153E220A168A150B302E
:103FD00083120313EE006E08F90002300A168A15E8
:103FE00072210A168A15B530F9008030FA000A16D7
:103FF0008A153E220A168A156F2E0A128A11002887
:04400E00D4E0FFFFFC
:00000001FF
